{
  "_format": "hh-sol-artifact-1",
  "contractName": "HealthChain",
  "sourceName": "contracts/HealthChain.sol",
  "abi": [
    {
      "inputs": [],
      "stateMutability": "nonpayable",
      "type": "constructor"
    },
    {
      "anonymous": false,
      "inputs": [
        {
          "indexed": true,
          "internalType": "uint256",
          "name": "consentId",
          "type": "uint256"
        },
        {
          "indexed": true,
          "internalType": "address",
          "name": "patient",
          "type": "address"
        },
        {
          "indexed": true,
          "internalType": "address",
          "name": "doctor",
          "type": "address"
        }
      ],
      "name": "ConsentGranted",
      "type": "event"
    },
    {
      "anonymous": false,
      "inputs": [
        {
          "indexed": true,
          "internalType": "uint256",
          "name": "consentId",
          "type": "uint256"
        },
        {
          "indexed": true,
          "internalType": "address",
          "name": "patient",
          "type": "address"
        },
        {
          "indexed": true,
          "internalType": "address",
          "name": "doctor",
          "type": "address"
        }
      ],
      "name": "ConsentRevoked",
      "type": "event"
    },
    {
      "anonymous": false,
      "inputs": [
        {
          "indexed": true,
          "internalType": "address",
          "name": "patient",
          "type": "address"
        },
        {
          "indexed": true,
          "internalType": "address",
          "name": "emergencyContact",
          "type": "address"
        }
      ],
      "name": "EmergencyAccessActivated",
      "type": "event"
    },
    {
      "anonymous": false,
      "inputs": [
        {
          "indexed": true,
          "internalType": "uint256",
          "name": "recordId",
          "type": "uint256"
        },
        {
          "indexed": true,
          "internalType": "address",
          "name": "accessor",
          "type": "address"
        },
        {
          "indexed": false,
          "internalType": "enum HealthChain.AccessType",
          "name": "accessType",
          "type": "uint8"
        }
      ],
      "name": "RecordAccessed",
      "type": "event"
    },
    {
      "anonymous": false,
      "inputs": [
        {
          "indexed": true,
          "internalType": "uint256",
          "name": "recordId",
          "type": "uint256"
        },
        {
          "indexed": true,
          "internalType": "address",
          "name": "patient",
          "type": "address"
        },
        {
          "indexed": false,
          "internalType": "string",
          "name": "ipfsHash",
          "type": "string"
        }
      ],
      "name": "RecordCreated",
      "type": "event"
    },
    {
      "anonymous": false,
      "inputs": [
        {
          "indexed": true,
          "internalType": "bytes32",
          "name": "role",
          "type": "bytes32"
        },
        {
          "indexed": true,
          "internalType": "bytes32",
          "name": "previousAdminRole",
          "type": "bytes32"
        },
        {
          "indexed": true,
          "internalType": "bytes32",
          "name": "newAdminRole",
          "type": "bytes32"
        }
      ],
      "name": "RoleAdminChanged",
      "type": "event"
    },
    {
      "anonymous": false,
      "inputs": [
        {
          "indexed": true,
          "internalType": "bytes32",
          "name": "role",
          "type": "bytes32"
        },
        {
          "indexed": true,
          "internalType": "address",
          "name": "account",
          "type": "address"
        },
        {
          "indexed": true,
          "internalType": "address",
          "name": "sender",
          "type": "address"
        }
      ],
      "name": "RoleGranted",
      "type": "event"
    },
    {
      "anonymous": false,
      "inputs": [
        {
          "indexed": true,
          "internalType": "bytes32",
          "name": "role",
          "type": "bytes32"
        },
        {
          "indexed": true,
          "internalType": "address",
          "name": "account",
          "type": "address"
        },
        {
          "indexed": true,
          "internalType": "address",
          "name": "sender",
          "type": "address"
        }
      ],
      "name": "RoleRevoked",
      "type": "event"
    },
    {
      "inputs": [],
      "name": "ADMIN_ROLE",
      "outputs": [
        {
          "internalType": "bytes32",
          "name": "",
          "type": "bytes32"
        }
      ],
      "stateMutability": "view",
      "type": "function"
    },
    {
      "inputs": [],
      "name": "DEFAULT_ADMIN_ROLE",
      "outputs": [
        {
          "internalType": "bytes32",
          "name": "",
          "type": "bytes32"
        }
      ],
      "stateMutability": "view",
      "type": "function"
    },
    {
      "inputs": [],
      "name": "DOCTOR_ROLE",
      "outputs": [
        {
          "internalType": "bytes32",
          "name": "",
          "type": "bytes32"
        }
      ],
      "stateMutability": "view",
      "type": "function"
    },
    {
      "inputs": [],
      "name": "PATIENT_ROLE",
      "outputs": [
        {
          "internalType": "bytes32",
          "name": "",
          "type": "bytes32"
        }
      ],
      "stateMutability": "view",
      "type": "function"
    },
    {
      "inputs": [
        {
          "internalType": "uint256",
          "name": "recordId",
          "type": "uint256"
        },
        {
          "internalType": "string",
          "name": "purpose",
          "type": "string"
        }
      ],
      "name": "accessRecord",
      "outputs": [],
      "stateMutability": "nonpayable",
      "type": "function"
    },
    {
      "inputs": [
        {
          "internalType": "address",
          "name": "patient",
          "type": "address"
        }
      ],
      "name": "activateEmergencyAccess",
      "outputs": [],
      "stateMutability": "nonpayable",
      "type": "function"
    },
    {
      "inputs": [
        {
          "internalType": "uint256",
          "name": "",
          "type": "uint256"
        }
      ],
      "name": "consentGrants",
      "outputs": [
        {
          "internalType": "uint256",
          "name": "id",
          "type": "uint256"
        },
        {
          "internalType": "address",
          "name": "patient",
          "type": "address"
        },
        {
          "internalType": "address",
          "name": "doctor",
          "type": "address"
        },
        {
          "internalType": "enum HealthChain.AccessType",
          "name": "accessType",
          "type": "uint8"
        },
        {
          "internalType": "enum HealthChain.ConsentStatus",
          "name": "status",
          "type": "uint8"
        },
        {
          "internalType": "uint256",
          "name": "grantedAt",
          "type": "uint256"
        },
        {
          "internalType": "uint256",
          "name": "expiresAt",
          "type": "uint256"
        },
        {
          "internalType": "string",
          "name": "purpose",
          "type": "string"
        }
      ],
      "stateMutability": "view",
      "type": "function"
    },
    {
      "inputs": [
        {
          "internalType": "string",
          "name": "ipfsHash",
          "type": "string"
        },
        {
          "internalType": "string",
          "name": "metadataHash",
          "type": "string"
        },
        {
          "internalType": "enum HealthChain.RecordType",
          "name": "recordType",
          "type": "uint8"
        }
      ],
      "name": "createMedicalRecord",
      "outputs": [
        {
          "internalType": "uint256",
          "name": "",
          "type": "uint256"
        }
      ],
      "stateMutability": "nonpayable",
      "type": "function"
    },
    {
      "inputs": [],
      "name": "deactivateEmergencyAccess",
      "outputs": [],
      "stateMutability": "nonpayable",
      "type": "function"
    },
    {
      "inputs": [
        {
          "internalType": "address",
          "name": "",
          "type": "address"
        },
        {
          "internalType": "uint256",
          "name": "",
          "type": "uint256"
        }
      ],
      "name": "emergencyContacts",
      "outputs": [
        {
          "internalType": "address",
          "name": "",
          "type": "address"
        }
      ],
      "stateMutability": "view",
      "type": "function"
    },
    {
      "inputs": [
        {
          "internalType": "address",
          "name": "",
          "type": "address"
        }
      ],
      "name": "emergencyOverride",
      "outputs": [
        {
          "internalType": "bool",
          "name": "",
          "type": "bool"
        }
      ],
      "stateMutability": "view",
      "type": "function"
    },
    {
      "inputs": [
        {
          "internalType": "address",
          "name": "patient",
          "type": "address"
        }
      ],
      "name": "getPatientConsents",
      "outputs": [
        {
          "internalType": "uint256[]",
          "name": "",
          "type": "uint256[]"
        }
      ],
      "stateMutability": "view",
      "type": "function"
    },
    {
      "inputs": [
        {
          "internalType": "address",
          "name": "patient",
          "type": "address"
        }
      ],
      "name": "getPatientRecords",
      "outputs": [
        {
          "internalType": "uint256[]",
          "name": "",
          "type": "uint256[]"
        }
      ],
      "stateMutability": "view",
      "type": "function"
    },
    {
      "inputs": [
        {
          "internalType": "uint256",
          "name": "recordId",
          "type": "uint256"
        }
      ],
      "name": "getRecordAccessLogs",
      "outputs": [
        {
          "components": [
            {
              "internalType": "address",
              "name": "accessor",
              "type": "address"
            },
            {
              "internalType": "uint256",
              "name": "recordId",
              "type": "uint256"
            },
            {
              "internalType": "enum HealthChain.AccessType",
              "name": "accessType",
              "type": "uint8"
            },
            {
              "internalType": "uint256",
              "name": "timestamp",
              "type": "uint256"
            },
            {
              "internalType": "string",
              "name": "purpose",
              "type": "string"
            }
          ],
          "internalType": "struct HealthChain.AccessLog[]",
          "name": "",
          "type": "tuple[]"
        }
      ],
      "stateMutability": "view",
      "type": "function"
    },
    {
      "inputs": [
        {
          "internalType": "uint256",
          "name": "recordId",
          "type": "uint256"
        }
      ],
      "name": "getRecordDetails",
      "outputs": [
        {
          "internalType": "address",
          "name": "patient",
          "type": "address"
        },
        {
          "internalType": "string",
          "name": "ipfsHash",
          "type": "string"
        },
        {
          "internalType": "enum HealthChain.RecordType",
          "name": "recordType",
          "type": "uint8"
        },
        {
          "internalType": "uint256",
          "name": "timestamp",
          "type": "uint256"
        }
      ],
      "stateMutability": "view",
      "type": "function"
    },
    {
      "inputs": [
        {
          "internalType": "bytes32",
          "name": "role",
          "type": "bytes32"
        }
      ],
      "name": "getRoleAdmin",
      "outputs": [
        {
          "internalType": "bytes32",
          "name": "",
          "type": "bytes32"
        }
      ],
      "stateMutability": "view",
      "type": "function"
    },
    {
      "inputs": [
        {
          "internalType": "address",
          "name": "doctor",
          "type": "address"
        },
        {
          "internalType": "uint256[]",
          "name": "recordIds",
          "type": "uint256[]"
        },
        {
          "internalType": "enum HealthChain.AccessType",
          "name": "accessType",
          "type": "uint8"
        },
        {
          "internalType": "uint256",
          "name": "duration",
          "type": "uint256"
        },
        {
          "internalType": "string",
          "name": "purpose",
          "type": "string"
        }
      ],
      "name": "grantConsent",
      "outputs": [
        {
          "internalType": "uint256",
          "name": "",
          "type": "uint256"
        }
      ],
      "stateMutability": "nonpayable",
      "type": "function"
    },
    {
      "inputs": [
        {
          "internalType": "bytes32",
          "name": "role",
          "type": "bytes32"
        },
        {
          "internalType": "address",
          "name": "account",
          "type": "address"
        }
      ],
      "name": "grantRole",
      "outputs": [],
      "stateMutability": "nonpayable",
      "type": "function"
    },
    {
      "inputs": [
        {
          "internalType": "bytes32",
          "name": "role",
          "type": "bytes32"
        },
        {
          "internalType": "address",
          "name": "account",
          "type": "address"
        }
      ],
      "name": "hasRole",
      "outputs": [
        {
          "internalType": "bool",
          "name": "",
          "type": "bool"
        }
      ],
      "stateMutability": "view",
      "type": "function"
    },
    {
      "inputs": [
        {
          "internalType": "uint256",
          "name": "consentId",
          "type": "uint256"
        }
      ],
      "name": "isConsentValid",
      "outputs": [
        {
          "internalType": "bool",
          "name": "",
          "type": "bool"
        }
      ],
      "stateMutability": "view",
      "type": "function"
    },
    {
      "inputs": [
        {
          "internalType": "uint256",
          "name": "",
          "type": "uint256"
        }
      ],
      "name": "medicalRecords",
      "outputs": [
        {
          "internalType": "uint256",
          "name": "id",
          "type": "uint256"
        },
        {
          "internalType": "address",
          "name": "patientAddress",
          "type": "address"
        },
        {
          "internalType": "address",
          "name": "doctorAddress",
          "type": "address"
        },
        {
          "internalType": "string",
          "name": "ipfsHash",
          "type": "string"
        },
        {
          "internalType": "string",
          "name": "metadataHash",
          "type": "string"
        },
        {
          "internalType": "enum HealthChain.RecordType",
          "name": "recordType",
          "type": "uint8"
        },
        {
          "internalType": "uint256",
          "name": "timestamp",
          "type": "uint256"
        },
        {
          "internalType": "bool",
          "name": "isActive",
          "type": "bool"
        }
      ],
      "stateMutability": "view",
      "type": "function"
    },
    {
      "inputs": [
        {
          "internalType": "address",
          "name": "",
          "type": "address"
        },
        {
          "internalType": "uint256",
          "name": "",
          "type": "uint256"
        }
      ],
      "name": "patientConsents",
      "outputs": [
        {
          "internalType": "uint256",
          "name": "",
          "type": "uint256"
        }
      ],
      "stateMutability": "view",
      "type": "function"
    },
    {
      "inputs": [
        {
          "internalType": "address",
          "name": "",
          "type": "address"
        },
        {
          "internalType": "uint256",
          "name": "",
          "type": "uint256"
        }
      ],
      "name": "patientRecords",
      "outputs": [
        {
          "internalType": "uint256",
          "name": "",
          "type": "uint256"
        }
      ],
      "stateMutability": "view",
      "type": "function"
    },
    {
      "inputs": [
        {
          "internalType": "uint256",
          "name": "",
          "type": "uint256"
        },
        {
          "internalType": "uint256",
          "name": "",
          "type": "uint256"
        }
      ],
      "name": "recordAccessLogs",
      "outputs": [
        {
          "internalType": "address",
          "name": "accessor",
          "type": "address"
        },
        {
          "internalType": "uint256",
          "name": "recordId",
          "type": "uint256"
        },
        {
          "internalType": "enum HealthChain.AccessType",
          "name": "accessType",
          "type": "uint8"
        },
        {
          "internalType": "uint256",
          "name": "timestamp",
          "type": "uint256"
        },
        {
          "internalType": "string",
          "name": "purpose",
          "type": "string"
        }
      ],
      "stateMutability": "view",
      "type": "function"
    },
    {
      "inputs": [
        {
          "internalType": "address",
          "name": "doctorAddress",
          "type": "address"
        }
      ],
      "name": "registerDoctor",
      "outputs": [],
      "stateMutability": "nonpayable",
      "type": "function"
    },
    {
      "inputs": [
        {
          "internalType": "address",
          "name": "patientAddress",
          "type": "address"
        }
      ],
      "name": "registerPatient",
      "outputs": [],
      "stateMutability": "nonpayable",
      "type": "function"
    },
    {
      "inputs": [
        {
          "internalType": "bytes32",
          "name": "role",
          "type": "bytes32"
        },
        {
          "internalType": "address",
          "name": "account",
          "type": "address"
        }
      ],
      "name": "renounceRole",
      "outputs": [],
      "stateMutability": "nonpayable",
      "type": "function"
    },
    {
      "inputs": [
        {
          "internalType": "uint256",
          "name": "consentId",
          "type": "uint256"
        }
      ],
      "name": "revokeConsent",
      "outputs": [],
      "stateMutability": "nonpayable",
      "type": "function"
    },
    {
      "inputs": [
        {
          "internalType": "bytes32",
          "name": "role",
          "type": "bytes32"
        },
        {
          "internalType": "address",
          "name": "account",
          "type": "address"
        }
      ],
      "name": "revokeRole",
      "outputs": [],
      "stateMutability": "nonpayable",
      "type": "function"
    },
    {
      "inputs": [
        {
          "internalType": "address[]",
          "name": "contacts",
          "type": "address[]"
        }
      ],
      "name": "setEmergencyContacts",
      "outputs": [],
      "stateMutability": "nonpayable",
      "type": "function"
    },
    {
      "inputs": [
        {
          "internalType": "bytes4",
          "name": "interfaceId",
          "type": "bytes4"
        }
      ],
      "name": "supportsInterface",
      "outputs": [
        {
          "internalType": "bool",
          "name": "",
          "type": "bool"
        }
      ],
      "stateMutability": "view",
      "type": "function"
    }
  ],
  "bytecode": "0x60806040523480156200001157600080fd5b50600180819055506200002e6000801b336200006660201b60201c565b620000607fa49807205ce4d355092ef5a8a18f56e8913cf4a201fbe287825b095693c21775336200006660201b60201c565b620001c9565b6200007882826200015760201b60201c565b6200015357600160008084815260200190815260200160002060000160008373ffffffffffffffffffffffffffffffffffffffff1673ffffffffffffffffffffffffffffffffffffffff16815260200190815260200160002060006101000a81548160ff021916908315150217905550620000f8620001c160201b60201c565b73ffffffffffffffffffffffffffffffffffffffff168173ffffffffffffffffffffffffffffffffffffffff16837f2f8788117e7eff1d82e926ec794901d17c78024a50270940304540a733656f0d60405160405180910390a45b5050565b600080600084815260200190815260200160002060000160008373ffffffffffffffffffffffffffffffffffffffff1673ffffffffffffffffffffffffffffffffffffffff16815260200190815260200160002060009054906101000a900460ff16905092915050565b600033905090565b6149af80620001d96000396000f3fe608060405234801561001057600080fd5b50600436106101e55760003560e01c806375b238fc1161010f578063ac5cb97d116100a2578063dd4544a111610071578063dd4544a114610613578063e562ff4014610643578063ea60ddb01461065f578063fec331f21461068f576101e5565b8063ac5cb97d1461058a578063bb91a851146105a8578063d547741f146105c4578063d8c08673146105e0576101e5565b806394f0df61116100de57806394f0df61146104d557806397615af114610505578063a217fddf14610535578063aad07f9b14610553576101e5565b806375b238fc1461043b5780638dba511d1461045957806391d148541461048957806391e7489f146104b9576101e5565b80632f2ff15d11610187578063579b14f711610156578063579b14f714610384578063699ca998146103b85780636ffdfed2146103d45780637564a13c14610404576101e5565b80632f2ff15d146102ec57806335b6dd451461030857806336568abe146103385780634fdf4d5114610354576101e5565b806316a0042c116101c357806316a0042c1461024057806318bd48471461025c578063248a9ca31461028c57806324924385146102bc576101e5565b806301ffc9a7146101ea5780631388c5191461021a578063166e965114610236575b600080fd5b61020460048036038101906101ff9190613074565b6106ad565b60405161021191906130bc565b60405180910390f35b610234600480360381019061022f9190613135565b610727565b005b61023e61077f565b005b61025a60048036038101906102559190613198565b610842565b005b61027660048036038101906102719190613135565b610a7c565b6040516102839190613283565b60405180910390f35b6102a660048036038101906102a191906132db565b610b13565b6040516102b39190613317565b60405180910390f35b6102d660048036038101906102d19190613135565b610b32565b6040516102e39190613283565b60405180910390f35b61030660048036038101906103019190613332565b610bc9565b005b610322600480360381019061031d91906135a5565b610bea565b60405161032f9190613667565b60405180910390f35b610352600480360381019061034d9190613332565b610fab565b005b61036e60048036038101906103699190613682565b61102e565b60405161037b9190613667565b60405180910390f35b61039e600480360381019061039991906136c2565b61105f565b6040516103af959493929190613807565b60405180910390f35b6103d260048036038101906103cd9190613135565b611167565b005b6103ee60048036038101906103e99190613682565b6111bf565b6040516103fb9190613861565b60405180910390f35b61041e60048036038101906104199190613198565b61120d565b6040516104329897969594939291906138c4565b60405180910390f35b6104436113bf565b6040516104509190613317565b60405180910390f35b610473600480360381019061046e9190613135565b6113e3565b60405161048091906130bc565b60405180910390f35b6104a3600480360381019061049e9190613332565b611403565b6040516104b091906130bc565b60405180910390f35b6104d360048036038101906104ce9190613a13565b61146d565b005b6104ef60048036038101906104ea9190613682565b61152d565b6040516104fc9190613667565b60405180910390f35b61051f600480360381019061051a9190613a81565b61155e565b60405161052c9190613667565b60405180910390f35b61053d611851565b60405161054a9190613317565b60405180910390f35b61056d60048036038101906105689190613198565b611858565b604051610581989796959493929190613b54565b60405180910390f35b610592611982565b60405161059f9190613317565b60405180910390f35b6105c260048036038101906105bd9190613135565b6119a6565b005b6105de60048036038101906105d99190613332565b611c76565b005b6105fa60048036038101906105f59190613198565b611c97565b60405161060a9493929190613bd9565b60405180910390f35b61062d60048036038101906106289190613198565b612058565b60405161063a91906130bc565b60405180910390f35b61065d60048036038101906106589190613c25565b6120cf565b005b61067960048036038101906106749190613198565b612796565b6040516106869190613e21565b60405180910390f35b61069761293f565b6040516106a49190613317565b60405180910390f35b60007f7965db0b000000000000000000000000000000000000000000000000000000007bffffffffffffffffffffffffffffffffffffffffffffffffffffffff1916827bffffffffffffffffffffffffffffffffffffffffffffffffffffffff19161480610720575061071f82612963565b5b9050919050565b7fa49807205ce4d355092ef5a8a18f56e8913cf4a201fbe287825b095693c21775610751816129cd565b61077b7f72606200fac42b7dc86b75901d61ecfab2a4a1a6eded478b97a428094891abed836129e1565b5050565b6107a97f72606200fac42b7dc86b75901d61ecfab2a4a1a6eded478b97a428094891abed33611403565b6107e8576040517f08c379a00000000000000000000000000000000000000000000000000000000081526004016107df90613e8f565b60405180910390fd5b6000600a60003373ffffffffffffffffffffffffffffffffffffffff1673ffffffffffffffffffffffffffffffffffffffff16815260200190815260200160002060006101000a81548160ff021916908315150217905550565b61086c7f72606200fac42b7dc86b75901d61ecfab2a4a1a6eded478b97a428094891abed33611403565b6108ab576040517f08c379a00000000000000000000000000000000000000000000000000000000081526004016108a290613e8f565b60405180910390fd5b60006005600083815260200190815260200160002090503373ffffffffffffffffffffffffffffffffffffffff168160010160009054906101000a900473ffffffffffffffffffffffffffffffffffffffff1673ffffffffffffffffffffffffffffffffffffffff1614610954576040517f08c379a000000000000000000000000000000000000000000000000000000000815260040161094b90613efb565b60405180910390fd5b6000600281111561096857610967613711565b5b8160040160019054906101000a900460ff16600281111561098c5761098b613711565b5b146109cc576040517f08c379a00000000000000000000000000000000000000000000000000000000081526004016109c390613f67565b60405180910390fd5b60018160040160016101000a81548160ff021916908360028111156109f4576109f3613711565b5b02179055508060020160009054906101000a900473ffffffffffffffffffffffffffffffffffffffff1673ffffffffffffffffffffffffffffffffffffffff163373ffffffffffffffffffffffffffffffffffffffff16837fa00855935b5f77dd67252f3420ac5ba0f865a3407fb52a270a20cdcdb70139ee60405160405180910390a45050565b6060600660008373ffffffffffffffffffffffffffffffffffffffff1673ffffffffffffffffffffffffffffffffffffffff168152602001908152602001600020805480602002602001604051908101604052809291908181526020018280548015610b0757602002820191906000526020600020905b815481526020019060010190808311610af3575b50505050509050919050565b6000806000838152602001908152602001600020600101549050919050565b6060600760008373ffffffffffffffffffffffffffffffffffffffff1673ffffffffffffffffffffffffffffffffffffffff168152602001908152602001600020805480602002602001604051908101604052809291908181526020018280548015610bbd57602002820191906000526020600020905b815481526020019060010190808311610ba9575b50505050509050919050565b610bd282610b13565b610bdb816129cd565b610be583836129e1565b505050565b6000610c167f72606200fac42b7dc86b75901d61ecfab2a4a1a6eded478b97a428094891abed33611403565b610c55576040517f08c379a0000000000000000000000000000000000000000000000000000000008152600401610c4c90613e8f565b60405180910390fd5b610c7f7f0af1dac7dea2fd7f7738119cec7df099dfad49aa9d2e7d17ba6b60f63ae7411f87611403565b610cbe576040517f08c379a0000000000000000000000000000000000000000000000000000000008152600401610cb590613fd3565b60405180910390fd5b610cc86003612ac1565b6000610cd46003612ad7565b90506000808511610ce6576000610cf3565b8442610cf29190614022565b5b90506040518061012001604052808381526020013373ffffffffffffffffffffffffffffffffffffffff1681526020018973ffffffffffffffffffffffffffffffffffffffff168152602001888152602001876002811115610d5857610d57613711565b5b815260200160006002811115610d7157610d70613711565b5b815260200142815260200182815260200185815250600560008481526020019081526020016000206000820151816000015560208201518160010160006101000a81548173ffffffffffffffffffffffffffffffffffffffff021916908373ffffffffffffffffffffffffffffffffffffffff16021790555060408201518160020160006101000a81548173ffffffffffffffffffffffffffffffffffffffff021916908373ffffffffffffffffffffffffffffffffffffffff1602179055506060820151816003019080519060200190610e4d929190612f14565b5060808201518160040160006101000a81548160ff02191690836002811115610e7957610e78613711565b5b021790555060a08201518160040160016101000a81548160ff02191690836002811115610ea957610ea8613711565b5b021790555060c0820151816005015560e08201518160060155610100820151816007019081610ed89190614262565b50905050600760003373ffffffffffffffffffffffffffffffffffffffff1673ffffffffffffffffffffffffffffffffffffffff1681526020019081526020016000208290806001815401808255809150506001900390600052602060002001600090919091909150558773ffffffffffffffffffffffffffffffffffffffff163373ffffffffffffffffffffffffffffffffffffffff16837faf83f3e8ef623b5862dab47729090ada578d5d18c2a5cccd074e27ed6d7ee4b760405160405180910390a4819250505095945050505050565b610fb3612ae5565b73ffffffffffffffffffffffffffffffffffffffff168173ffffffffffffffffffffffffffffffffffffffff1614611020576040517f08c379a0000000000000000000000000000000000000000000000000000000008152600401611017906143a6565b60405180910390fd5b61102a8282612aed565b5050565b6007602052816000526040600020818154811061104a57600080fd5b90600052602060002001600091509150505481565b6008602052816000526040600020818154811061107b57600080fd5b9060005260206000209060050201600091509150508060000160009054906101000a900473ffffffffffffffffffffffffffffffffffffffff16908060010154908060020160009054906101000a900460ff16908060030154908060040180546110e490614085565b80601f016020809104026020016040519081016040528092919081815260200182805461111090614085565b801561115d5780601f106111325761010080835404028352916020019161115d565b820191906000526020600020905b81548152906001019060200180831161114057829003601f168201915b5050505050905085565b7fa49807205ce4d355092ef5a8a18f56e8913cf4a201fbe287825b095693c21775611191816129cd565b6111bb7f0af1dac7dea2fd7f7738119cec7df099dfad49aa9d2e7d17ba6b60f63ae7411f836129e1565b5050565b600960205281600052604060002081815481106111db57600080fd5b906000526020600020016000915091509054906101000a900473ffffffffffffffffffffffffffffffffffffffff1681565b60046020528060005260406000206000915090508060000154908060010160009054906101000a900473ffffffffffffffffffffffffffffffffffffffff16908060020160009054906101000a900473ffffffffffffffffffffffffffffffffffffffff169080600301805461128290614085565b80601f01602080910402602001604051908101604052809291908181526020018280546112ae90614085565b80156112fb5780601f106112d0576101008083540402835291602001916112fb565b820191906000526020600020905b8154815290600101906020018083116112de57829003601f168201915b50505050509080600401805461131090614085565b80601f016020809104026020016040519081016040528092919081815260200182805461133c90614085565b80156113895780601f1061135e57610100808354040283529160200191611389565b820191906000526020600020905b81548152906001019060200180831161136c57829003601f168201915b5050505050908060050160009054906101000a900460ff16908060060154908060070160009054906101000a900460ff16905088565b7fa49807205ce4d355092ef5a8a18f56e8913cf4a201fbe287825b095693c2177581565b600a6020528060005260406000206000915054906101000a900460ff1681565b600080600084815260200190815260200160002060000160008373ffffffffffffffffffffffffffffffffffffffff1673ffffffffffffffffffffffffffffffffffffffff16815260200190815260200160002060009054906101000a900460ff16905092915050565b6114977f72606200fac42b7dc86b75901d61ecfab2a4a1a6eded478b97a428094891abed33611403565b6114d6576040517f08c379a00000000000000000000000000000000000000000000000000000000081526004016114cd90613e8f565b60405180910390fd5b80600960003373ffffffffffffffffffffffffffffffffffffffff1673ffffffffffffffffffffffffffffffffffffffff1681526020019081526020016000209080519060200190611529929190612f61565b5050565b6006602052816000526040600020818154811061154957600080fd5b90600052602060002001600091509150505481565b600061158a7f72606200fac42b7dc86b75901d61ecfab2a4a1a6eded478b97a428094891abed33611403565b6115c9576040517f08c379a00000000000000000000000000000000000000000000000000000000081526004016115c090613e8f565b60405180910390fd5b6115d36002612ac1565b60006115df6002612ad7565b90506040518061010001604052808281526020013373ffffffffffffffffffffffffffffffffffffffff168152602001600073ffffffffffffffffffffffffffffffffffffffff16815260200186815260200185815260200184600581111561164b5761164a613711565b5b815260200142815260200160011515815250600460008381526020019081526020016000206000820151816000015560208201518160010160006101000a81548173ffffffffffffffffffffffffffffffffffffffff021916908373ffffffffffffffffffffffffffffffffffffffff16021790555060408201518160020160006101000a81548173ffffffffffffffffffffffffffffffffffffffff021916908373ffffffffffffffffffffffffffffffffffffffff160217905550606082015181600301908161171d9190614262565b5060808201518160040190816117339190614262565b5060a08201518160050160006101000a81548160ff0219169083600581111561175f5761175e613711565b5b021790555060c0820151816006015560e08201518160070160006101000a81548160ff021916908315150217905550905050600660003373ffffffffffffffffffffffffffffffffffffffff1673ffffffffffffffffffffffffffffffffffffffff1681526020019081526020016000208190806001815401808255809150506001900390600052602060002001600090919091909150553373ffffffffffffffffffffffffffffffffffffffff16817f99a9454438287bd513ed7da46fc0ff0cabc6b573eeafb583a59e01bc2e52ef908760405161183e91906143c6565b60405180910390a3809150509392505050565b6000801b81565b60056020528060005260406000206000915090508060000154908060010160009054906101000a900473ffffffffffffffffffffffffffffffffffffffff16908060020160009054906101000a900473ffffffffffffffffffffffffffffffffffffffff16908060040160009054906101000a900460ff16908060040160019054906101000a900460ff16908060050154908060060154908060070180546118ff90614085565b80601f016020809104026020016040519081016040528092919081815260200182805461192b90614085565b80156119785780601f1061194d57610100808354040283529160200191611978565b820191906000526020600020905b81548152906001019060200180831161195b57829003601f168201915b5050505050905088565b7f72606200fac42b7dc86b75901d61ecfab2a4a1a6eded478b97a428094891abed81565b6119d07f72606200fac42b7dc86b75901d61ecfab2a4a1a6eded478b97a428094891abed82611403565b611a0f576040517f08c379a0000000000000000000000000000000000000000000000000000000008152600401611a0690614434565b60405180910390fd5b6000600960008373ffffffffffffffffffffffffffffffffffffffff1673ffffffffffffffffffffffffffffffffffffffff168152602001908152602001600020805480602002602001604051908101604052809291908181526020018280548015611ad057602002820191906000526020600020905b8160009054906101000a900473ffffffffffffffffffffffffffffffffffffffff1673ffffffffffffffffffffffffffffffffffffffff1681526020019060010190808311611a86575b505050505090506000805b8251811015611b4d573373ffffffffffffffffffffffffffffffffffffffff16838281518110611b0e57611b0d614454565b5b602002602001015173ffffffffffffffffffffffffffffffffffffffff1603611b3a5760019150611b4d565b8080611b4590614483565b915050611adb565b508080611b805750611b7f7fa49807205ce4d355092ef5a8a18f56e8913cf4a201fbe287825b095693c2177533611403565b5b611bbf576040517f08c379a0000000000000000000000000000000000000000000000000000000008152600401611bb69061453d565b60405180910390fd5b6001600a60008573ffffffffffffffffffffffffffffffffffffffff1673ffffffffffffffffffffffffffffffffffffffff16815260200190815260200160002060006101000a81548160ff0219169083151502179055503373ffffffffffffffffffffffffffffffffffffffff168373ffffffffffffffffffffffffffffffffffffffff167f50bd68b82e4acc05360431a202c88354634b24aec1b2397c754eb1861a2c9f4360405160405180910390a3505050565b611c7f82610b13565b611c88816129cd565b611c928383612aed565b505050565b6000606060008060006004600087815260200190815260200160002090508060070160009054906101000a900460ff16611d06576040517f08c379a0000000000000000000000000000000000000000000000000000000008152600401611cfd906145a9565b60405180910390fd5b60003373ffffffffffffffffffffffffffffffffffffffff168260010160009054906101000a900473ffffffffffffffffffffffffffffffffffffffff1673ffffffffffffffffffffffffffffffffffffffff1603611d685760019050611f63565b611d927f0af1dac7dea2fd7f7738119cec7df099dfad49aa9d2e7d17ba6b60f63ae7411f33611403565b15611f62576000600760008460010160009054906101000a900473ffffffffffffffffffffffffffffffffffffffff1673ffffffffffffffffffffffffffffffffffffffff1673ffffffffffffffffffffffffffffffffffffffff168152602001908152602001600020805480602002602001604051908101604052809291908181526020018280548015611e4657602002820191906000526020600020905b815481526020019060010190808311611e32575b5050505050905060005b8151811015611f5f57600060056000848481518110611e7257611e71614454565b5b6020026020010151815260200190815260200160002090503373ffffffffffffffffffffffffffffffffffffffff168160020160009054906101000a900473ffffffffffffffffffffffffffffffffffffffff1673ffffffffffffffffffffffffffffffffffffffff16148015611f1e575060006002811115611ef857611ef7613711565b5b8160040160019054906101000a900460ff166002811115611f1c57611f1b613711565b5b145b8015611f3c5750600081600601541480611f3b5750428160060154115b5b15611f4b576001935050611f5f565b508080611f5790614483565b915050611e50565b50505b5b8160010160009054906101000a900473ffffffffffffffffffffffffffffffffffffffff1681611fa25760405180602001604052806000815250612030565b826003018054611fb190614085565b80601f0160208091040260200160405190810160405280929190818152602001828054611fdd90614085565b801561202a5780601f10611fff5761010080835404028352916020019161202a565b820191906000526020600020905b81548152906001019060200180831161200d57829003601f168201915b50505050505b8360050160009054906101000a900460ff168460060154955095509550955050509193509193565b6000806005600084815260200190815260200160002090506000600281111561208457612083613711565b5b8160040160019054906101000a900460ff1660028111156120a8576120a7613711565b5b1480156120c757506000816006015414806120c65750428160060154115b5b915050919050565b6120f97f0af1dac7dea2fd7f7738119cec7df099dfad49aa9d2e7d17ba6b60f63ae7411f33611403565b612138576040517f08c379a000000000000000000000000000000000000000000000000000000000815260040161212f90614615565b60405180910390fd5b612140612bce565b60006004600084815260200190815260200160002090508060070160009054906101000a900460ff166121a8576040517f08c379a000000000000000000000000000000000000000000000000000000000815260040161219f90614681565b60405180910390fd5b6000806000600760008560010160009054906101000a900473ffffffffffffffffffffffffffffffffffffffff1673ffffffffffffffffffffffffffffffffffffffff1673ffffffffffffffffffffffffffffffffffffffff16815260200190815260200160002080548060200260200160405190810160405280929190818152602001828054801561225a57602002820191906000526020600020905b815481526020019060010190808311612246575b5050505050905060005b81518110156123e05760006005600084848151811061228657612285614454565b5b6020026020010151815260200190815260200160002090503373ffffffffffffffffffffffffffffffffffffffff168160020160009054906101000a900473ffffffffffffffffffffffffffffffffffffffff1673ffffffffffffffffffffffffffffffffffffffff1614801561233257506000600281111561230c5761230b613711565b5b8160040160019054906101000a900460ff1660028111156123305761232f613711565b5b145b8015612350575060008160060154148061234f5750428160060154115b5b156123cc5760005b81600301805490508110156123be578882600301828154811061237e5761237d614454565b5b9060005260206000200154036123ab57600195508160040160009054906101000a900460ff1694506123be565b80806123b690614483565b915050612358565b5084156123cb57506123e0565b5b5080806123d890614483565b915050612264565b508215801561245c5750600a60008560010160009054906101000a900473ffffffffffffffffffffffffffffffffffffffff1673ffffffffffffffffffffffffffffffffffffffff1673ffffffffffffffffffffffffffffffffffffffff16815260200190815260200160002060009054906101000a900460ff165b156125c9576000600960008660010160009054906101000a900473ffffffffffffffffffffffffffffffffffffffff1673ffffffffffffffffffffffffffffffffffffffff1673ffffffffffffffffffffffffffffffffffffffff16815260200190815260200160002080548060200260200160405190810160405280929190818152602001828054801561254657602002820191906000526020600020905b8160009054906101000a900473ffffffffffffffffffffffffffffffffffffffff1673ffffffffffffffffffffffffffffffffffffffff16815260200190600101908083116124fc575b5050505050905060005b81518110156125c6573373ffffffffffffffffffffffffffffffffffffffff1682828151811061258357612582614454565b5b602002602001015173ffffffffffffffffffffffffffffffffffffffff16036125b35760019450600293506125c6565b80806125be90614483565b915050612550565b50505b82612609576040517f08c379a0000000000000000000000000000000000000000000000000000000008152600401612600906146ed565b60405180910390fd5b600860008781526020019081526020016000206040518060a001604052803373ffffffffffffffffffffffffffffffffffffffff16815260200188815260200184600281111561265c5761265b613711565b5b815260200142815260200187815250908060018154018082558091505060019003906000526020600020906005020160009091909190915060008201518160000160006101000a81548173ffffffffffffffffffffffffffffffffffffffff021916908373ffffffffffffffffffffffffffffffffffffffff1602179055506020820151816001015560408201518160020160006101000a81548160ff021916908360028111156127105761270f613711565b5b02179055506060820151816003015560808201518160040190816127349190614262565b5050503373ffffffffffffffffffffffffffffffffffffffff16867f53e69caeeee9d4617d71a65e73bf46ae8826c3b6b7b592966f541441bafcafc78460405161277e919061470d565b60405180910390a350505050612792612c1d565b5050565b606060086000838152602001908152602001600020805480602002602001604051908101604052809291908181526020016000905b8282101561293457838290600052602060002090600502016040518060a00160405290816000820160009054906101000a900473ffffffffffffffffffffffffffffffffffffffff1673ffffffffffffffffffffffffffffffffffffffff1673ffffffffffffffffffffffffffffffffffffffff168152602001600182015481526020016002820160009054906101000a900460ff16600281111561287357612872613711565b5b600281111561288557612884613711565b5b8152602001600382015481526020016004820180546128a390614085565b80601f01602080910402602001604051908101604052809291908181526020018280546128cf90614085565b801561291c5780601f106128f15761010080835404028352916020019161291c565b820191906000526020600020905b8154815290600101906020018083116128ff57829003601f168201915b505050505081525050815260200190600101906127cb565b505050509050919050565b7f0af1dac7dea2fd7f7738119cec7df099dfad49aa9d2e7d17ba6b60f63ae7411f81565b60007f01ffc9a7000000000000000000000000000000000000000000000000000000007bffffffffffffffffffffffffffffffffffffffffffffffffffffffff1916827bffffffffffffffffffffffffffffffffffffffffffffffffffffffff1916149050919050565b6129de816129d9612ae5565b612c26565b50565b6129eb8282611403565b612abd57600160008084815260200190815260200160002060000160008373ffffffffffffffffffffffffffffffffffffffff1673ffffffffffffffffffffffffffffffffffffffff16815260200190815260200160002060006101000a81548160ff021916908315150217905550612a62612ae5565b73ffffffffffffffffffffffffffffffffffffffff168173ffffffffffffffffffffffffffffffffffffffff16837f2f8788117e7eff1d82e926ec794901d17c78024a50270940304540a733656f0d60405160405180910390a45b5050565b6001816000016000828254019250508190555050565b600081600001549050919050565b600033905090565b612af78282611403565b15612bca57600080600084815260200190815260200160002060000160008373ffffffffffffffffffffffffffffffffffffffff1673ffffffffffffffffffffffffffffffffffffffff16815260200190815260200160002060006101000a81548160ff021916908315150217905550612b6f612ae5565b73ffffffffffffffffffffffffffffffffffffffff168173ffffffffffffffffffffffffffffffffffffffff16837ff6391f5c32d9c69d2a47ea670b442974b53935d1edc7fd64eb21e047a839171b60405160405180910390a45b5050565b600260015403612c13576040517f08c379a0000000000000000000000000000000000000000000000000000000008152600401612c0a90614774565b60405180910390fd5b6002600181905550565b60018081905550565b612c308282611403565b612ca757612c3d81612cab565b612c4b8360001c6020612cd8565b604051602001612c5c929190614868565b6040516020818303038152906040526040517f08c379a0000000000000000000000000000000000000000000000000000000008152600401612c9e91906143c6565b60405180910390fd5b5050565b6060612cd18273ffffffffffffffffffffffffffffffffffffffff16601460ff16612cd8565b9050919050565b606060006002836002612ceb91906148a2565b612cf59190614022565b67ffffffffffffffff811115612d0e57612d0d613388565b5b6040519080825280601f01601f191660200182016040528015612d405781602001600182028036833780820191505090505b5090507f300000000000000000000000000000000000000000000000000000000000000081600081518110612d7857612d77614454565b5b60200101907effffffffffffffffffffffffffffffffffffffffffffffffffffffffffffff1916908160001a9053507f780000000000000000000000000000000000000000000000000000000000000081600181518110612ddc57612ddb614454565b5b60200101907effffffffffffffffffffffffffffffffffffffffffffffffffffffffffffff1916908160001a90535060006001846002612e1c91906148a2565b612e269190614022565b90505b6001811115612ec6577f3031323334353637383961626364656600000000000000000000000000000000600f861660108110612e6857612e67614454565b5b1a60f81b828281518110612e7f57612e7e614454565b5b60200101907effffffffffffffffffffffffffffffffffffffffffffffffffffffffffffff1916908160001a905350600485901c945080612ebf906148e4565b9050612e29565b5060008414612f0a576040517f08c379a0000000000000000000000000000000000000000000000000000000008152600401612f0190614959565b60405180910390fd5b8091505092915050565b828054828255906000526020600020908101928215612f50579160200282015b82811115612f4f578251825591602001919060010190612f34565b5b509050612f5d9190612feb565b5090565b828054828255906000526020600020908101928215612fda579160200282015b82811115612fd95782518260006101000a81548173ffffffffffffffffffffffffffffffffffffffff021916908373ffffffffffffffffffffffffffffffffffffffff16021790555091602001919060010190612f81565b5b509050612fe79190612feb565b5090565b5b80821115613004576000816000905550600101612fec565b5090565b6000604051905090565b600080fd5b600080fd5b60007fffffffff0000000000000000000000000000000000000000000000000000000082169050919050565b6130518161301c565b811461305c57600080fd5b50565b60008135905061306e81613048565b92915050565b60006020828403121561308a57613089613012565b5b60006130988482850161305f565b91505092915050565b60008115159050919050565b6130b6816130a1565b82525050565b60006020820190506130d160008301846130ad565b92915050565b600073ffffffffffffffffffffffffffffffffffffffff82169050919050565b6000613102826130d7565b9050919050565b613112816130f7565b811461311d57600080fd5b50565b60008135905061312f81613109565b92915050565b60006020828403121561314b5761314a613012565b5b600061315984828501613120565b91505092915050565b6000819050919050565b61317581613162565b811461318057600080fd5b50565b6000813590506131928161316c565b92915050565b6000602082840312156131ae576131ad613012565b5b60006131bc84828501613183565b91505092915050565b600081519050919050565b600082825260208201905092915050565b6000819050602082019050919050565b6131fa81613162565b82525050565b600061320c83836131f1565b60208301905092915050565b6000602082019050919050565b6000613230826131c5565b61323a81856131d0565b9350613245836131e1565b8060005b8381101561327657815161325d8882613200565b975061326883613218565b925050600181019050613249565b5085935050505092915050565b6000602082019050818103600083015261329d8184613225565b905092915050565b6000819050919050565b6132b8816132a5565b81146132c357600080fd5b50565b6000813590506132d5816132af565b92915050565b6000602082840312156132f1576132f0613012565b5b60006132ff848285016132c6565b91505092915050565b613311816132a5565b82525050565b600060208201905061332c6000830184613308565b92915050565b6000806040838503121561334957613348613012565b5b6000613357858286016132c6565b925050602061336885828601613120565b9150509250929050565b600080fd5b6000601f19601f8301169050919050565b7f4e487b7100000000000000000000000000000000000000000000000000000000600052604160045260246000fd5b6133c082613377565b810181811067ffffffffffffffff821117156133df576133de613388565b5b80604052505050565b60006133f2613008565b90506133fe82826133b7565b919050565b600067ffffffffffffffff82111561341e5761341d613388565b5b602082029050602081019050919050565b600080fd5b600061344761344284613403565b6133e8565b9050808382526020820190506020840283018581111561346a5761346961342f565b5b835b81811015613493578061347f8882613183565b84526020840193505060208101905061346c565b5050509392505050565b600082601f8301126134b2576134b1613372565b5b81356134c2848260208601613434565b91505092915050565b600381106134d857600080fd5b50565b6000813590506134ea816134cb565b92915050565b600080fd5b600067ffffffffffffffff8211156135105761350f613388565b5b61351982613377565b9050602081019050919050565b82818337600083830152505050565b6000613548613543846134f5565b6133e8565b905082815260208101848484011115613564576135636134f0565b5b61356f848285613526565b509392505050565b600082601f83011261358c5761358b613372565b5b813561359c848260208601613535565b91505092915050565b600080600080600060a086880312156135c1576135c0613012565b5b60006135cf88828901613120565b955050602086013567ffffffffffffffff8111156135f0576135ef613017565b5b6135fc8882890161349d565b945050604061360d888289016134db565b935050606061361e88828901613183565b925050608086013567ffffffffffffffff81111561363f5761363e613017565b5b61364b88828901613577565b9150509295509295909350565b61366181613162565b82525050565b600060208201905061367c6000830184613658565b92915050565b6000806040838503121561369957613698613012565b5b60006136a785828601613120565b92505060206136b885828601613183565b9150509250929050565b600080604083850312156136d9576136d8613012565b5b60006136e785828601613183565b92505060206136f885828601613183565b9150509250929050565b61370b816130f7565b82525050565b7f4e487b7100000000000000000000000000000000000000000000000000000000600052602160045260246000fd5b6003811061375157613750613711565b5b50565b600081905061376282613740565b919050565b600061377282613754565b9050919050565b61378281613767565b82525050565b600081519050919050565b600082825260208201905092915050565b60005b838110156137c25780820151818401526020810190506137a7565b60008484015250505050565b60006137d982613788565b6137e38185613793565b93506137f38185602086016137a4565b6137fc81613377565b840191505092915050565b600060a08201905061381c6000830188613702565b6138296020830187613658565b6138366040830186613779565b6138436060830185613658565b818103608083015261385581846137ce565b90509695505050505050565b60006020820190506138766000830184613702565b92915050565b6006811061388d5761388c613711565b5b50565b600081905061389e8261387c565b919050565b60006138ae82613890565b9050919050565b6138be816138a3565b82525050565b6000610100820190506138da600083018b613658565b6138e7602083018a613702565b6138f46040830189613702565b818103606083015261390681886137ce565b9050818103608083015261391a81876137ce565b905061392960a08301866138b5565b61393660c0830185613658565b61394360e08301846130ad565b9998505050505050505050565b600067ffffffffffffffff82111561396b5761396a613388565b5b602082029050602081019050919050565b600061398f61398a84613950565b6133e8565b905080838252602082019050602084028301858111156139b2576139b161342f565b5b835b818110156139db57806139c78882613120565b8452602084019350506020810190506139b4565b5050509392505050565b600082601f8301126139fa576139f9613372565b5b8135613a0a84826020860161397c565b91505092915050565b600060208284031215613a2957613a28613012565b5b600082013567ffffffffffffffff811115613a4757613a46613017565b5b613a53848285016139e5565b91505092915050565b60068110613a6957600080fd5b50565b600081359050613a7b81613a5c565b92915050565b600080600060608486031215613a9a57613a99613012565b5b600084013567ffffffffffffffff811115613ab857613ab7613017565b5b613ac486828701613577565b935050602084013567ffffffffffffffff811115613ae557613ae4613017565b5b613af186828701613577565b9250506040613b0286828701613a6c565b9150509250925092565b60038110613b1d57613b1c613711565b5b50565b6000819050613b2e82613b0c565b919050565b6000613b3e82613b20565b9050919050565b613b4e81613b33565b82525050565b600061010082019050613b6a600083018b613658565b613b77602083018a613702565b613b846040830189613702565b613b916060830188613779565b613b9e6080830187613b45565b613bab60a0830186613658565b613bb860c0830185613658565b81810360e0830152613bca81846137ce565b90509998505050505050505050565b6000608082019050613bee6000830187613702565b8181036020830152613c0081866137ce565b9050613c0f60408301856138b5565b613c1c6060830184613658565b95945050505050565b60008060408385031215613c3c57613c3b613012565b5b6000613c4a85828601613183565b925050602083013567ffffffffffffffff811115613c6b57613c6a613017565b5b613c7785828601613577565b9150509250929050565b600081519050919050565b600082825260208201905092915050565b6000819050602082019050919050565b613cb6816130f7565b82525050565b613cc581613767565b82525050565b600082825260208201905092915050565b6000613ce782613788565b613cf18185613ccb565b9350613d018185602086016137a4565b613d0a81613377565b840191505092915050565b600060a083016000830151613d2d6000860182613cad565b506020830151613d4060208601826131f1565b506040830151613d536040860182613cbc565b506060830151613d6660608601826131f1565b5060808301518482036080860152613d7e8282613cdc565b9150508091505092915050565b6000613d978383613d15565b905092915050565b6000602082019050919050565b6000613db782613c81565b613dc18185613c8c565b935083602082028501613dd385613c9d565b8060005b85811015613e0f5784840389528151613df08582613d8b565b9450613dfb83613d9f565b925060208a01995050600181019050613dd7565b50829750879550505050505092915050565b60006020820190508181036000830152613e3b8184613dac565b905092915050565b7f43616c6c6572206973206e6f7420612070617469656e74000000000000000000600082015250565b6000613e79601783613793565b9150613e8482613e43565b602082019050919050565b60006020820190508181036000830152613ea881613e6c565b9050919050565b7f4e6f7420796f757220636f6e73656e7400000000000000000000000000000000600082015250565b6000613ee5601083613793565b9150613ef082613eaf565b602082019050919050565b60006020820190508181036000830152613f1481613ed8565b9050919050565b7f436f6e73656e74206e6f74206163746976650000000000000000000000000000600082015250565b6000613f51601283613793565b9150613f5c82613f1b565b602082019050919050565b60006020820190508181036000830152613f8081613f44565b9050919050565b7f496e76616c696420646f63746f72206164647265737300000000000000000000600082015250565b6000613fbd601683613793565b9150613fc882613f87565b602082019050919050565b60006020820190508181036000830152613fec81613fb0565b9050919050565b7f4e487b7100000000000000000000000000000000000000000000000000000000600052601160045260246000fd5b600061402d82613162565b915061403883613162565b92508282019050808211156140505761404f613ff3565b5b92915050565b7f4e487b7100000000000000000000000000000000000000000000000000000000600052602260045260246000fd5b6000600282049050600182168061409d57607f821691505b6020821081036140b0576140af614056565b5b50919050565b60008190508160005260206000209050919050565b60006020601f8301049050919050565b600082821b905092915050565b6000600883026141187fffffffffffffffffffffffffffffffffffffffffffffffffffffffffffffffff826140db565b61412286836140db565b95508019841693508086168417925050509392505050565b6000819050919050565b600061415f61415a61415584613162565b61413a565b613162565b9050919050565b6000819050919050565b61417983614144565b61418d61418582614166565b8484546140e8565b825550505050565b600090565b6141a2614195565b6141ad818484614170565b505050565b5b818110156141d1576141c660008261419a565b6001810190506141b3565b5050565b601f821115614216576141e7816140b6565b6141f0846140cb565b810160208510156141ff578190505b61421361420b856140cb565b8301826141b2565b50505b505050565b600082821c905092915050565b60006142396000198460080261421b565b1980831691505092915050565b60006142528383614228565b9150826002028217905092915050565b61426b82613788565b67ffffffffffffffff81111561428457614283613388565b5b61428e8254614085565b6142998282856141d5565b600060209050601f8311600181146142cc57600084156142ba578287015190505b6142c48582614246565b86555061432c565b601f1984166142da866140b6565b60005b82811015614302578489015182556001820191506020850194506020810190506142dd565b8683101561431f578489015161431b601f891682614228565b8355505b6001600288020188555050505b505050505050565b7f416363657373436f6e74726f6c3a2063616e206f6e6c792072656e6f756e636560008201527f20726f6c657320666f722073656c660000000000000000000000000000000000602082015250565b6000614390602f83613793565b915061439b82614334565b604082019050919050565b600060208201905081810360008301526143bf81614383565b9050919050565b600060208201905081810360008301526143e081846137ce565b905092915050565b7f496e76616c69642070617469656e740000000000000000000000000000000000600082015250565b600061441e600f83613793565b9150614429826143e8565b602082019050919050565b6000602082019050818103600083015261444d81614411565b9050919050565b7f4e487b7100000000000000000000000000000000000000000000000000000000600052603260045260246000fd5b600061448e82613162565b91507fffffffffffffffffffffffffffffffffffffffffffffffffffffffffffffffff82036144c0576144bf613ff3565b5b600182019050919050565b7f4e6f7420617574686f72697a656420666f7220656d657267656e63792061636360008201527f6573730000000000000000000000000000000000000000000000000000000000602082015250565b6000614527602383613793565b9150614532826144cb565b604082019050919050565b600060208201905081810360008301526145568161451a565b9050919050565b7f5265636f7264206e6f7420666f756e6400000000000000000000000000000000600082015250565b6000614593601083613793565b915061459e8261455d565b602082019050919050565b600060208201905081810360008301526145c281614586565b9050919050565b7f43616c6c6572206973206e6f74206120646f63746f7200000000000000000000600082015250565b60006145ff601683613793565b915061460a826145c9565b602082019050919050565b6000602082019050818103600083015261462e816145f2565b9050919050565b7f5265636f7264206e6f7420666f756e64206f7220696e61637469766500000000600082015250565b600061466b601c83613793565b915061467682614635565b602082019050919050565b6000602082019050818103600083015261469a8161465e565b9050919050565b7f4163636573732064656e69656400000000000000000000000000000000000000600082015250565b60006146d7600d83613793565b91506146e2826146a1565b602082019050919050565b60006020820190508181036000830152614706816146ca565b9050919050565b60006020820190506147226000830184613779565b92915050565b7f5265656e7472616e637947756172643a207265656e7472616e742063616c6c00600082015250565b600061475e601f83613793565b915061476982614728565b602082019050919050565b6000602082019050818103600083015261478d81614751565b9050919050565b600081905092915050565b7f416363657373436f6e74726f6c3a206163636f756e7420000000000000000000600082015250565b60006147d5601783614794565b91506147e08261479f565b601782019050919050565b60006147f682613788565b6148008185614794565b93506148108185602086016137a4565b80840191505092915050565b7f206973206d697373696e6720726f6c6520000000000000000000000000000000600082015250565b6000614852601183614794565b915061485d8261481c565b601182019050919050565b6000614873826147c8565b915061487f82856147eb565b915061488a82614845565b915061489682846147eb565b91508190509392505050565b60006148ad82613162565b91506148b883613162565b92508282026148c681613162565b915082820484148315176148dd576148dc613ff3565b5b5092915050565b60006148ef82613162565b91506000820361490257614901613ff3565b5b600182039050919050565b7f537472696e67733a20686578206c656e67746820696e73756666696369656e74600082015250565b6000614943602083613793565b915061494e8261490d565b602082019050919050565b6000602082019050818103600083015261497281614936565b905091905056fea26469706673582212209805c666479d5e22aaba8048aa4b75d97a7efd0bee35855fc8da6cd49b0c504864736f6c63430008130033",
  "linkReferences": {},
  "deployedLinkReferences": {}
}